{
  "contractName": "MultiSigWallet",
  "abi": [
    {
      "inputs": [],
      "name": "deposit",
      "outputs": [],
      "stateMutability": "payable",
      "type": "function",
      "payable": true
    },
    {
      "inputs": [
        {
          "internalType": "address payable",
          "name": "recipient",
          "type": "address"
        },
        {
          "internalType": "uint256",
          "name": "amount",
          "type": "uint256"
        }
      ],
      "name": "transfer",
      "outputs": [],
      "stateMutability": "nonpayable",
      "type": "function"
    },
    {
      "inputs": [
        {
          "internalType": "uint256",
          "name": "transferIndex",
          "type": "uint256"
        }
      ],
      "name": "sign",
      "outputs": [],
      "stateMutability": "payable",
      "type": "function",
      "payable": true
    },
    {
      "inputs": [],
      "name": "getBalance",
      "outputs": [
        {
          "internalType": "uint256",
          "name": "",
          "type": "uint256"
        }
      ],
      "stateMutability": "view",
      "type": "function",
      "constant": true
    },
    {
      "inputs": [],
      "name": "numberOfTranfers",
      "outputs": [
        {
          "internalType": "uint256",
          "name": "",
          "type": "uint256"
        }
      ],
      "stateMutability": "view",
      "type": "function",
      "constant": true
    },
    {
      "inputs": [
        {
          "internalType": "uint256",
          "name": "indexOfTransfer",
          "type": "uint256"
        }
      ],
      "name": "statusOfTransfer",
      "outputs": [
        {
          "internalType": "bool",
          "name": "",
          "type": "bool"
        }
      ],
      "stateMutability": "view",
      "type": "function",
      "constant": true
    }
  ],
  "bytecode": "0x60806040526040518060600160405280737dc772e0bf71ff49d34dc3ddccfbf8d8e66a2b1673ffffffffffffffffffffffffffffffffffffffff1673ffffffffffffffffffffffffffffffffffffffff16815260200173bb01f60647cbb6be36bc68767497758a80848bf573ffffffffffffffffffffffffffffffffffffffff1673ffffffffffffffffffffffffffffffffffffffff16815260200173a8b2a3209260e88f05b2bcfdc95c2b040c169b1e73ffffffffffffffffffffffffffffffffffffffff1673ffffffffffffffffffffffffffffffffffffffff1681525060009060036100ef92919061010c565b506003600155600060025534801561010657600080fd5b506101b3565b828054828255906000526020600020908101928215610185579160200282015b828111156101845782518260006101000a81548173ffffffffffffffffffffffffffffffffffffffff021916908373ffffffffffffffffffffffffffffffffffffffff1602179055509160200191906001019061012c565b5b5090506101929190610196565b5090565b5b808211156101af576000816000905550600101610197565b5090565b610b9e806101c26000396000f3fe6080604052600436106100555760003560e01c806312065fe01461005a5780632fb1b25f1461008557806358d7e084146100a15780636257caa2146100cc578063a9059cbb14610109578063d0e30db014610132575b600080fd5b34801561006657600080fd5b5061006f61013c565b60405161007c919061086d565b60405180910390f35b61009f600480360381019061009a91906108b9565b610146565b005b3480156100ad57600080fd5b506100b661032e565b6040516100c3919061086d565b60405180910390f35b3480156100d857600080fd5b506100f360048036038101906100ee91906108b9565b61033b565b6040516101009190610901565b60405180910390f35b34801561011557600080fd5b50610130600480360381019061012b919061097a565b610377565b005b61013a6105f1565b005b6000600254905090565b60006003828154811061015c5761015b6109ba565b5b906000526020600020906004020190506000151561020233836003018054806020026020016040519081016040528092919081815260200182805480156101f857602002820191906000526020600020905b8160009054906101000a900473ffffffffffffffffffffffffffffffffffffffff1673ffffffffffffffffffffffffffffffffffffffff16815260200190600101908083116101ae575b5050505050610619565b151514156102705780600301339080600181540180825580915050600190039060005260206000200160009091909190916101000a81548173ffffffffffffffffffffffffffffffffffffffff021916908373ffffffffffffffffffffffffffffffffffffffff1602179055505b60015481600301805490501061032a578060020160009054906101000a900473ffffffffffffffffffffffffffffffffffffffff1673ffffffffffffffffffffffffffffffffffffffff166108fc82600101549081150290604051600060405180830381858888f193505050501580156102ee573d6000803e3d6000fd5b508060010154600260008282546103059190610a18565b9250508190555060018160020160146101000a81548160ff0219169083151502179055505b5050565b6000600380549050905090565b600060038281548110610351576103506109ba565b5b906000526020600020906004020160020160149054906101000a900460ff169050919050565b610380336106a1565b6103bf576040517f08c379a00000000000000000000000000000000000000000000000000000000081526004016103b690610aa9565b60405180910390fd5b6103c7610750565b33816000019073ffffffffffffffffffffffffffffffffffffffff16908173ffffffffffffffffffffffffffffffffffffffff16815250508181602001818152505082816040019073ffffffffffffffffffffffffffffffffffffffff16908173ffffffffffffffffffffffffffffffffffffffff16815250506000816060019015159081151581525050600381908060018154018082558091505060019003906000526020600020906004020160009091909190915060008201518160000160006101000a81548173ffffffffffffffffffffffffffffffffffffffff021916908373ffffffffffffffffffffffffffffffffffffffff1602179055506020820151816001015560408201518160020160006101000a81548173ffffffffffffffffffffffffffffffffffffffff021916908373ffffffffffffffffffffffffffffffffffffffff16021790555060608201518160020160146101000a81548160ff02191690831515021790555060808201518160030190805190602001906105529291906107ad565b505050600360016003805490506105699190610a18565b8154811061057a576105796109ba565b5b9060005260206000209060040201600301339080600181540180825580915050600190039060005260206000200160009091909190916101000a81548173ffffffffffffffffffffffffffffffffffffffff021916908373ffffffffffffffffffffffffffffffffffffffff160217905550505050565b600034116105fe57600080fd5b34600260008282546106109190610ac9565b92505081905550565b600080600090505b8251811015610695578373ffffffffffffffffffffffffffffffffffffffff16838281518110610654576106536109ba565b5b602002602001015173ffffffffffffffffffffffffffffffffffffffff16141561068257600191505061069b565b808061068d90610b1f565b915050610621565b50600090505b92915050565b600080600090505b600080549050811015610745578273ffffffffffffffffffffffffffffffffffffffff16600082815481106106e1576106e06109ba565b5b9060005260206000200160009054906101000a900473ffffffffffffffffffffffffffffffffffffffff1673ffffffffffffffffffffffffffffffffffffffff16141561073257600191505061074b565b808061073d90610b1f565b9150506106a9565b50600090505b919050565b6040518060a00160405280600073ffffffffffffffffffffffffffffffffffffffff16815260200160008152602001600073ffffffffffffffffffffffffffffffffffffffff168152602001600015158152602001606081525090565b828054828255906000526020600020908101928215610826579160200282015b828111156108255782518260006101000a81548173ffffffffffffffffffffffffffffffffffffffff021916908373ffffffffffffffffffffffffffffffffffffffff160217905550916020019190600101906107cd565b5b5090506108339190610837565b5090565b5b80821115610850576000816000905550600101610838565b5090565b6000819050919050565b61086781610854565b82525050565b6000602082019050610882600083018461085e565b92915050565b600080fd5b61089681610854565b81146108a157600080fd5b50565b6000813590506108b38161088d565b92915050565b6000602082840312156108cf576108ce610888565b5b60006108dd848285016108a4565b91505092915050565b60008115159050919050565b6108fb816108e6565b82525050565b600060208201905061091660008301846108f2565b92915050565b600073ffffffffffffffffffffffffffffffffffffffff82169050919050565b60006109478261091c565b9050919050565b6109578161093c565b811461096257600080fd5b50565b6000813590506109748161094e565b92915050565b6000806040838503121561099157610990610888565b5b600061099f85828601610965565b92505060206109b0858286016108a4565b9150509250929050565b7f4e487b7100000000000000000000000000000000000000000000000000000000600052603260045260246000fd5b7f4e487b7100000000000000000000000000000000000000000000000000000000600052601160045260246000fd5b6000610a2382610854565b9150610a2e83610854565b925082821015610a4157610a406109e9565b5b828203905092915050565b600082825260208201905092915050565b7f796f7520617265206e6f7420746865206f776e65720000000000000000000000600082015250565b6000610a93601583610a4c565b9150610a9e82610a5d565b602082019050919050565b60006020820190508181036000830152610ac281610a86565b9050919050565b6000610ad482610854565b9150610adf83610854565b9250827fffffffffffffffffffffffffffffffffffffffffffffffffffffffffffffffff03821115610b1457610b136109e9565b5b828201905092915050565b6000610b2a82610854565b91507fffffffffffffffffffffffffffffffffffffffffffffffffffffffffffffffff821415610b5d57610b5c6109e9565b5b60018201905091905056fea2646970667358221220fde447a4bf375f56d4b1d9072223bbb7cb9d38acd651ee934926880a06d5efaa64736f6c634300080b0033",
  "immutableReferences": {},
  "source": "pragma solidity 0.8.11;\n\ncontract MultiSigWallet {\n\n    // these constants you should input yourself\n    address[] owners = [0x7DC772E0bf71FF49d34DC3DdccFBF8d8e66A2B16, 0xbB01f60647cBB6bE36bC68767497758A80848Bf5, 0xA8b2a3209260e88f05B2bCfdc95c2B040C169B1e];\n    uint signLimit = 3;\n\n    // structure of a transfer\n    struct Transfer {\n        address initiater;\n        uint amount;\n        address payable recipient;\n        bool confirmed;\n        address[] signers;\n    }\n\n    // balance and all transfers\n    uint balance = 0;\n    Transfer[] transfers;\n\n    // deposit Ethereum to the protocol\n    function deposit() public payable {\n        require(msg.value > 0);\n        balance += msg.value;\n    }\n\n    // amount in WEI!!!!\n    function transfer(address payable recipient, uint amount) public {\n        require(addressIsOwner(msg.sender), \"you are not the owner\");\n        Transfer memory newTransfer;\n        newTransfer.initiater = msg.sender;\n        newTransfer.amount = amount;\n        newTransfer.recipient = recipient;\n        newTransfer.confirmed = false;\n\n        // we cant just push msg.sender to newTransfer.signers cause newTransfer is memory. not storage\n        // after we created a new trasfer, we can easily add msg.senders to last created transfer\n        transfers.push(newTransfer);\n        transfers[transfers.length - 1].signers.push(msg.sender);\n    }\n\n    // is 3 accours, then call confirm\n    function sign(uint transferIndex) public payable {\n        Transfer storage currentTransfer = transfers[transferIndex];\n        if (addressSigned(msg.sender, currentTransfer.signers) == false) {\n            currentTransfer.signers.push(msg.sender);\n        }\n\n        // check if already needed amount of signatures to transfer money\n        if (currentTransfer.signers.length >= signLimit) {\n            currentTransfer.recipient.transfer(currentTransfer.amount);\n            balance -= currentTransfer.amount;\n            currentTransfer.confirmed = true;\n        }\n    }\n\n    // PRINT SOME INFO //\n\n    function getBalance() public view returns(uint) {\n        return balance;\n    }\n\n    function numberOfTranfers() public view returns(uint) {\n        return transfers.length;\n    }\n\n    function statusOfTransfer(uint indexOfTransfer) public view returns(bool) {\n        return transfers[indexOfTransfer].confirmed;\n    }\n\n    // HELPER FUNCTIONS //\n\n    // check if address is already signed transfer by checking existance in array\n    function addressSigned(address signer, address[] memory signers) private pure returns(bool) {\n        for (uint i = 0; i < signers.length; i++) {\n            if (signers[i] == signer) {\n                return true;\n            }\n        }\n        return false;\n    }\n\n    function addressIsOwner(address currentAddress) private view returns(bool) {\n        for (uint i = 0; i < owners.length; i++) {\n            if (owners[i] == currentAddress) {\n                return true;\n            }\n        }\n        return false;\n    }\n}\n",
  "sourcePath": "/Users/romanrakhlin/Dropbox/Mac/Desktop/MultiSigWallet/contracts/MultiSigWallet.sol",
  "compiler": {
    "name": "solc",
    "version": "0.8.11+commit.d7f03943.Emscripten.clang"
  },
  "schemaVersion": "3.4.3",
  "updatedAt": "2022-02-03T18:25:48.182Z",
  "networkType": "ethereum",
  "devdoc": {
    "kind": "dev",
    "methods": {},
    "version": 1
  },
  "userdoc": {
    "kind": "user",
    "methods": {},
    "version": 1
  }
}